:400000000040002011000000A1090000A109000080B500AF00F0C8FC80B500AF274B12221A6001F01DFB264B181C01F091F9012001F026FB182001F0DDF9224B224A1A60B1
:40004000224B8022D2051A60214B214A126802210A431A601F4B204A1A60204B1F4A126808218A431A60FA23DB00181C01F0B2FA1B4B181C01F0CCFB1A4BE02212011A60CA
:40008000194B1A4A1A601A4BC02212011A60164B184A1A60184B822212061A60174B41221A60174B40221A60084B8022D2051A60024B11221A60BD4680BDC04630001040D1
:4000C000001BB70004010B40060000800C020B4078002E407C002E406A2D00006CF02E40DC050000040301400000014041FF00800003014040FF008008010B4018010140F3
:400100000401014080B582B000AF72B6504B00221A60FB1D00221A7023E0FB1D1A78131C5B009B185B004B4A9B183B603B681A78597809020A43997809040A43DB781B06DB
:400140001343191C3B681A795B791B0213439BB2081C191C00F0ACFCFB1D1A78FB1D01321A70FB1D1B78012BD7D93B4A3B4B101C191C00F0ADFC3A4BEE2212061A60394B83
:40018000992212041A60384BC022D2011A60374B992212041A60364B992212041A60354B992212041A60344B802212061A60334B992212041A60324BC02212041A60314AF8
:4001C000304B1B78DBB202210B43DBB213702E4A2D4B1B78DBB23C218B43DBB214210B43DBB21370274A274B1B78DBB216210B43DBB21370254BD82212041A60244B202245
:400200001A60244BC42292021A60234B20221A60224BBE221A60224B8022D2031A60214B802212021A60204B3E221A601F4B38221A601F4BC32252001A601E4B38221A601B
:40024000FFF7EAFE00F084FCBD4602B080BDC0466CF02E406C200000782000008C20000000000240000102400003024000500F4010500F4020500F4024500F4030500F4035
:4002800038500F4000700F4001700F400800044000010440080104401801044000020440080204400C0204401802044000030440080304401803044010B5064C2378002B97
:4002C00007D1054B002B02D0044800E000BF0123237010BDE000002000000000381F000008B5084B002B03D00748084900E000BF07480368002B00D108BD064B002BFBD004
:400300009847F9E700000000381F0000E4000020C80000200000000080B582B000AF78600A1CFB1C1A70FB1C1B78181C01F0B8FABD4602B080BDC04680B58AB000AF00F07F
:40034000E3F81D4B0020191C00F0FEFA1B4B181C01F026FB1A4B181C01F022FB194B181C01F01EFB184B181C01F01AFB174B181C01F016FB00F048F8031C7B627B6A3B6225
:40038000134B181C01F00CFB124A7B6A101C191C00F0ECFA3B1C181C01F002FB0E4B181C01F0FEFA094B181C01F0FAFAFA23DB00181C01F009FADDE7190300003C1F000084
:4003C000941F0000AC1F0000C41F0000E81F0000EC1F0000FC1F00000020000080B500AF00F02EFE00F0BCFD022000F0D5FD022000F0D2FD00F0C2FD002000F0F1FD031C15
:400400009BB2181CBD4680BD80B584B000AF0023FB600A23FB1800221A800823FB1800221A80BB1D00221A8000F012FEFFF7D6FF031C1A1C0A23FB181A80FFF7CFFF031CFE
:400440001A1C0823FB181A80FFF7C8FF031C1A1CBB1D1A80274B181C01F0A2FA0823FB1800229B5E244A101C191C00F07FFA234B181C01F095FA224B181C01F091FA0A23BA
:40048000FB1800229B5E1C4A101C191C00F06EFA1A4B181C01F084FA0A23FB181A88BB1D1B88D31A9BB299B20823FB181A88BB1D1B88D31A9BB29BB20AB21BB2101C191C39
:4004C00000F0CEFD031CFB60FB68181C00F012FE031C181C01F09CFC021C0A4B1A60094B1B68181C01F074FC031C181CBD4604B080BDC0460420000014200000182000001E
:400500001C200000FC00002080B500AF00F006FF012000F0B9FE002000F0DAFE00F020FC01F0A2F901F082FA01F0BEFABD4680BD80B588B000AFF860B9607A603B600023C7
:40054000FB610123BB6103E0BB69BA685343BB61F868B96901F0BAFA031C1A1EBB689A42F2D231E0F868B96901F0B0FA031C7B61FB68181CB96901F02FFB0B1CFB60B86923
:40058000B96801F0A3FA031CBB61FB69002B05D17B69002B02DCBB69002B15D13A68531C3B607B69092B06DD7B68002B01D0372302E0572300E030237969C9B25B18DBB2FE
:4005C0001370FB690133FB61BB69002BCAD13B6800221A70BD4608B080BDC04680B582B000AF786039607B68002B07DA7B685B427B603B685A1C3A602D221A707A683B686B
:40060000101C0A210022FFF793FFBD4602B080BD80B582B000AF021CFB1D1A70FB1D1B782F2B07D9FB1D1B78392B03D8FB1D1B78303B19E0FB1D1B78602B07D9FB1D1B7852
:40064000662B03D8FB1D1B78573B0DE0FB1D1B78402B07D9FB1D1B78462B03D8FB1D1B78373B01E001235B42181CBD4602B080BD80B588B000AFB9607A603B600F23FB1823
:40068000021C1A70BB681B68FB610023BB6111E07A697B689A4200DD17E0BB697A685A437B69D318BB61FB695A1CFA610F22BA181B7813700F23FB181B78181CFFF7A8FF65
:4006C000031C7B617B69002BE2DABB68FA691A603B68BA691A600F23FB181B78181CBD4608B080BD80B586B000AFF860B9607A601A1CFB1C1A70FB1C1B78002B01D03022BC
:4007000000E020221323FB181A703B6A7B6102E07B68013B7B607B695A1C7A611B78002B02D07B68002BF3DC07E0F9681323FB181A78BB68081C111C98477B685A1E7A601A
:40074000002BF2DC07E0F9681223FB181A78BB68081C111C98473B6A5A1C3A621222BA181B7813701223FB181B78002BEBD1BD4606B080BD90B58DB002AFF860B9607A6002
:400780003B60CFE02723FB181B78252B08D0F9682723FB181A78BB68081C111C9847C1E02623FB1800221A7000237B617B685A1C7A602722BA181B7813702723FB181B7838
:4007C000302B0AD17B685A1C7A602722BA181B7813702623FB1801221A702723FB181B782F2B13D92723FB181B78392B0ED82723FC182723FB1819783A1D1423FB18081CD5
:40080000111C0A22FFF734FF031C23702723FB181B78632B63D008DC252B00D179E0582B3DD0002B00D18BE07BE0732B62D002DC642B1DD075E0752B02D0782B2FD070E040
:400840003B681A1D3A601A681823FB18101C0A210022FFF76DFE7A69F868B9682623FB181C781823FB180093231CFFF73BFF59E03B681A1D3A601A681823FB18101C191CD8
:40088000FFF7ACFE7A69F868B9682623FB181C781823FB180093231CFFF724FF42E03B681A1D3A601A682723FB181B78583B59424B41DBB21C1C1823FB18101C1021221C9B
:4008C000FFF736FE7A69F868B9682623FB181C781823FB180093231CFFF704FF22E03B681A1D3A601B68DAB2F968BB68081C111C984717E07C693B681A1D3A601B68F968F4
:40090000BA680093081C111C221C0023FFF7EAFE08E0F9682723FB181A78BB68081C111C9847C0467B685A1C7A602722BA181B7813702723FB181B78002B00D022E700E0A9
:40094000C046BD460BB090BD80B582B000AF78603960044B3A681A60034B7A681A60BD4602B080BD00010020040100200FB480B582B000AF1423FB187B60074B1868074B70
:4009800019683A697B68FFF7F5FEBD4602B080BC08BC04B01847C046040100200001002080B500AFFEE7C04680B586B000AF224B7B61224B3B61204B7B6135E03B691B6875
:4009C000FB603B695B68BB603B699B683B6000237B600CE0FB681A68BB681A60BB680433BB60FB680433FB607B6804337B607A683B689A42EED13B69DB683B6000237B606D
:400A000008E0BB6800221A60BB680433BB607B6804337B607A683B689A42F2D13B6910333B617B69013B7B617B69002BC6D101F055FAFFF781FCFEE7010000004040000043
:400A400080B582B000AF154B144A126801218A431A6000237B600FE07B68032B04D8104B7A689200D35800E00E4B0F4A796889008B507B6801337B607B682F2BECD9FFF72A
:400A800041FB0A4B00221A60044B044A126801210A431A60BD4602B080BDC0460000104000000000A109000000000020C000002080B582B000AF786039607A683B68101CDF
:400AC00000211A1C01F030FABD4602B080BDC04680B586B000AF7860396000233B6100237B612FE07B699B007A68D3181B68BB600F23FB18BA681A70BB68FF229343BB6024
:400B000018E03B695B003A68D3181B781A1CBB68D318191C3B695B003A68D3185B780B703B6901333B610F23FB181A780F23FB18013A1A700F23FB181B78002BE1D17B695D
:400B400001337B617B69042BCCD9BD4606B080BD80B500AF0E4B802212061A600D4B03221A600D4B0222FF321A600C4B812252001A600B4B03221A600A4B802212051A60E5
:400B8000094B00221A60012000F010F8BD4680BD000030403000304080003040880030403000314000003A40000E3F4080B584B000AF021CFB1D1A700B4B1B68FB60FB1D28
:400BC0001B78002B05D0FB68802212061343FB6003E0FB685B005B08FB60034BFA681A60BD4604B080BDC04680033A4080B500AF064BFF221A70064B01221A60044B2022B5
:400C00001A60034B04221A60BD4680BDCC00002004033A4080B500AF1C4B1B78DBB2DBB20133DBB2DAB2194B1A70184B1B785BB2072B10D89A00164BD3181B689F46134BA3
:400C400004221A70114B05221A70104B06221A700E4B07221A700D4B00221A700D4B04221A600D4B01221A600DE00A4B01221A60094B20221A6006E0064B20221A60064B7A
:400C800004221A60C046BD4680BDC046CC0000202C20000004033A4000033A4080B500AF084BFF221A70084B8022D2001A60064B802252011A60044B8022D2001A60BD46EF
:400CC00080BDC046CD00002004033A4080B500AF1F4B1B78DBB2DBB20133DBB2DAB21C4B1A701B4B1B785BB2072B10D89A00194BD3181B689F46164B04221A70144B052202
:400D00001A70134B06221A70114B07221A70104B00221A70104B8022D2001A600F4B8022D2001A6011E00C4B8022D2001A600B4B802252011A6008E0074B802252011A60CE
:400D4000064B8022D2001A60C046BD4680BDC046CD0000204C20000004033A4000033A4080B500AF064B1B78002B04D100F00AF8034B01221A7000F0D7F8BD4680BDC046D7
:400D80000801002080B584B000AF0F20032100F0BDFC4E4B0F20191C00F092FC4C4B01221A604C4B4C4A1A604C4B4D4A1A604D4B4D4A1A604D4B00221A604D4B4D4A1A6072
:400DC0004D4B4C4A1A604D4B00221A604C4B00221A604C4B01221A604B4B1B687B607B684A4A13407B607B688022920513437B607B68012293437B60434B7A681A60002306
:400E0000FB605CE0A023DA00DC239B0113407B60FB689B003E4A944663447A681A60A023DB000122134009D0344B344A1268F96801208840011C89B20A431A60A023DB00E7
:400E40000222134009D02E4B2D4A1268F96801208840011C89B20A431A60A023DA0080239B00134003D08023DB00BB6002E080235B01BB60A023DA0080235B00134005D1F5
:400E8000244BFA6852000021D15204E0214BFA6852000021D152BB681F4A53431F4A94466344181C1E4900F0A1FE031C9BB219B21C4BFA689200D150FB680133FB60FB6845
:400EC000002B9FD0BD4604B080BDC0462510000020003A4000003A407002005304003A40BD00008018003A400000FF071C003A4010003A400400040014003A4028023A40A3
:400F000038023A4018023A4030003A40FFFFFFDF80003A402001002010270000E40C0000C81900001C01002080B500AF0A4B1B68002B0EDBC046094B1B68002BFBDB064B64
:400F4000054A1268802109060A431A600A2000F05FFCBD4680BDC04600003A4008023A4080B500AF044B044A1268802149020A431A60BD4680BDC04604003A4080B500AF22
:400F8000034B034A126803490A401A60BD4680BD04003A40FFFFFEFF80B584B000AF78600023FB607B680322134011D00B4B1B6801221340FB60FB68002B03D17B68022296
:400FC0001340F3D1FB68002B02D0044B01221A60FB68181CBD4604B080BDC04610023A4080B584B000AF78607B68002B02D0002000F0E0FB7B68002B09D17B689B00084AFE
:40100000944663441B681B041B0CFB6001E00023FB60FB689BB21BB2181CBD4604B080BD80013A4080B582B000AF044B1B687B60024B7A681A60BD4602B080BD10023A4022
:4010400080B500AFFFF7E6FDFFF740FEBD4680BD80B500AFFFF7CAFDFFF720FEBD4680BD90B585B000AF021CBB1D1A803B1D0A1C1A803B1D00229B5E181C0A2100F0B6FD04
:40108000031C9BB21BB2174A5A43BB1D00215B5E101C191C00F0AAFD031C134A9C183B1D00229B5E181C0A2100F0A0FD031C9BB21BB20E4A5A43BB1D00215B5E101C191C7F
:4010C00000F094FD031C1A1C094B9B1A201C191C00F08CFD031CFB60FB68181CBD4605B090BDC04600C2EB0B00E1F505204E00001027000080B584B000AF78600E23FB189F
:4011000000221A800C23FB18FA22D2001A804AE00E23FB181A880C23FB181B88D3185A100A23FB181A800A23FB181B88002B0FD00A23FB181A88FA23DB009A4208D00A235D
:40114000FB181A884E4B9200D2587B689A4206D10C23FB180A22BA1812881A802BE00A23FB181A88464B9200D2587B689A420DD90E23FB180A22BA18128801321A800C23A4
:40118000FB180C22BA1812881A800CE00C23FB180A22BA181288013A1A800E23FB180E22BA1812881A800E23FA180C23FB1812881B889A42ACD30C23FB181A88304B9200C5
:4011C000D2587B689A4220D90C23FB181B882D4A93421AD80C23FB181A88294B9200D2587B68D21A0C23FB181B88591C244B8900CB587968CB1A9A4207D90C23FB181A882C
:401200000C23FB1801321A8027E00C23FB181A881B4B9200D2587B689A421ED20C23FB181B88002B19D00C23FB181B885A1E144B9200D2587B68D21A0C23FB181988104B65
:401240008900CB587968CB1A9A4206D20C23FB181A880C23FB18013A1A800C23FB181B88FA22D200944663449AB20823FB181A800823FB181B881BB2181CBD4604B080BDFF
:40128000A8200000CF07000080B584B000AF021CFB1D1A700D4B1B68DAB20F23FB1801218A431A70FB1D1B7801221340D9B20F23FB180F22BA1812780A431A70034B0F22BF
:4012C000BA1812781A60BD4604B080BD0003044080B584B000AF021CFB1D1A700E4B1B68DAB20F23FB1804218A431A70FB1D1B789B00DBB204221340D9B20F23FB180F228F
:40130000BA1812780A431A70034B0F22BA1812781A60BD4604B080BD0003044080B582B000AF094B1B68DAB2FB1D7F218A431A70054BFA1D12781A60FB1D1B78DB09DBB2DB
:40134000181CBD4602B080BD10020440000000000230800803D00138FDD1C046C046C0467047EFF3108072B6704780F31088704780B500AF0B4B0B4A126801218A431A600F
:40138000094B094A126830218A4310210A431A60054B054A126807218A4301210A431A60BD4680BD00F02E4000FF2E4080B500AF0E4B0E4A126802218A431A600C4B0C4ACE
:4013C000126807218A4302210A431A60084B084A126830218A4320210A431A60034B034A126801210A431A60BD4680BD00F02E4000FF2E4090B585B000AF78607B68022B35
:4014000000D8BBE07B68302B00D9B7E05E4B1B78DBB21A1E7B689A420AD35C4A0F23FB1812781A705A4A0E23FB1812781A703FE0584B1B78DBB21A1E7B689A420AD3564A9D
:401440000F23FB1812781A70544A0E23FB1812781A702DE0524B1B78DBB21A1E7B689A420AD3504A0F23FB1812781A704E4A0E23FB1812781A701BE04C4B1B78DBB21A1EB2
:401480007B689A420AD34A4A0F23FB1812781A70484A0E23FB1812781A7009E0464A0F23FB1812781A70454A0E23FB1812781A707B68DA1E0C23FB1841498A5C1A700B23BB
:4014C000FC18FFF74EFF031C23700C23FB181B782F2B0DD97B682A2B0AD93A4B19221A600520FFF735FF0D23FB1819221A7007E0344B1B68DAB20D23FB183F210A401A7036
:401500000C23FA180D23FB1812781B789A4208D22C4B7A68033A2A498A5C1A600520FFF717FF294B7A6825498C4662441278D2B21A60264B0F22BA1812781A60244B0E22DF
:40154000BA1812781A60052000F062F90C23FA180D23FB1812781B789A4208D9194B7A68033A17498A5C1A600520FFF7F1FE0B23FB181B78181CFFF7F8FE02E0002000F094
:4015800019F9BD4605B090BDC0F1FF0FC1F1FF0FC2F1FF0FC3F1FF0FC4F1FF0FC5F1FF0FC6F1FF0FC7F1FF0FC8F1FF0FC9F1FF0FCAF1FF0FCBF1FF0FCCF1FF0FCDF1FF0F47
:4015C000EC3F00002CFF0B4028FF0B401CFF0B4020FF0B4080B584B000AF78600023FB60154B154A126801210A431A60134B144A1A60144B134A1268802109020A431A6099
:401600007B68002B12D01023FB600CE0012000F0FFF800F019F8031E02D00023FB6005E07B68013B7B607B68002BEFD1FB68181CBD4604B080BDC04660F02E4078002E40E4
:401640000220000010002E4080B500AF034B1B6801221340181CBD4680BDC0460C002E4080B500AFFFF784FE044B044A1268802109060A431A60BD4680BDC04600F02E401D
:4016800080B584B000AF78600C4B1B6801221340FB607B68002B02D0012B03D005E0FFF767FE06E0FFF782FE03E0002000F082F8C046FB68181CBD4604B080BD00F02E40B8
:4016C00080B584B000AF021C3960FB1D1A7080239B05FB60FB1D1B781F2B02D9002000F069F8FB1D1B7810339B00FA68D3181B68BB60FB1D1B7810339B00FA68D3183A68AE
:401700001A60BB68181CBD4604B080BD90B587B000AF021CFB1D1A70BB1D0A1C1A70BB1D1B78032B02D9002000F044F8FB1D1B781F2B02D9002000F03DF8FB1D1B780322CC
:401740001340DB0006337B611323FC18FFF709FE031C2370FB1D1B789B08DBB29B00144A944663441B68FB607B6903229A40131CDA43FB681340FB60BB1D1A787B699A4092
:40178000131CFA681343FB60FB1D1B789B08DBB29B00074A94466344FA681A601323FB181B78181CFFF7E1FDBD4607B090BDC04600E400E080B582B000AF021CFB1D1A7038
:4017C00001BEBD4602B080BD80B582B000AF786009E00C4B1B68181CFFF7BAFD7B680A4A944663447B607A6880231B029A42F0D8064B1B687A685343181CFFF7A9FDBD46AE
:4018000002B080BDDC0000200080FFFFD400002080B582B000AF021CBB1D1A80BB1D1B88044A12785343181CFFF792FDBD4602B080BDC046D800002080B500AF00F046F801
:40184000BD4680BD80B500AF064B064A1268802109060A431A6000F019F800F01BF8BD4680BDC0460000244080B500AF064B1B78002B04D1FFF7E0FF034B01221A70FFF776
:40188000E1FFBD4680BDC0460901002080B500AFBD4680BD80B500AF00F070F8BD4680BD80B582B000AF7860C046064B1B681F221340082BF9D0044B7A681A60BD4602B080
:4018C00080BDC046080224404002244080B500AF184B194A1A60194B00221A60184B01221A60184B184A1A60184B07221A60184B00221A60174B01221A60174B124A1A60F2
:40190000164B00221A60164B04221A60154B00221A60154B00221A60144B00221A60144B00221A60134B00221A60134B00221A60BD4680BD000024400F000002400024406E
:40194000480024400003244007000080040324401003244044002440000224400402244050002440880E2440C80E2440480F2440080F2440C80F2440880F244080B500AF3B
:40198000054B054A126805490A40902109040A431A60BD4680BDC04600010240FFFF0FFF80B584B000AF78600023FB6009E07A68FB68D3181B78181CFFF772FFFB68013310
:4019C000FB607A68FB68D3181B78002BEFD1BD4604B080BD80B500AF074B02221A60074B802212061A60064B04221A60054B03221A60BD4680BDC0461001002000003040C9
:401A000004003040080F304080B500AF054A054B1968054B1B680B43802109010B431360BD4680BD040030401001002080B500AF064B1B78002B04D1FFF7CCFF034B01223B
:401A40001A70FFF7E1FFBD4680BDC0460C01002080B500AF074B02221A60074B802212061A60064B04221A60054B03221A60BD4680BDC046180100200000304008003040F2
:401A8000140F304080B500AF054A054B1968054B1B680B43802109010B431360BD4680BD080030401801002080B500AF064B1B78002B04D1FFF7CCFF034B01221A70FFF797
:401AC000E1FFBD4680BDC04614010020002243088B4274D303098B425FD3030A8B4244D3030B8B4228D3030C8B420DD3FF22090212BA030C8B4202D31212090265D0030B61
:401B00008B4219D300E0090AC30B8B4201D3CB03C01A5241830B8B4201D38B03C01A5241430B8B4201D34B03C01A5241030B8B4201D30B03C01A5241C30A8B4201D3CB0216
:401B4000C01A5241830A8B4201D38B02C01A5241430A8B4201D34B02C01A5241030A8B4201D30B02C01A5241CDD2C3098B4201D3CB01C01A524183098B4201D38B01C01A28
:401B8000524143098B4201D34B01C01A524103098B4201D30B01C01A5241C3088B4201D3CB00C01A524183088B4201D38B00C01A524143088B4201D34B00C01A5241411AFF
:401BC00000D20146524110467047FFE701B5002000F0FCF802BDC0460029F7D003B5FFF775FF0EBC4243891A1847C04603460B437FD4002243088B4274D303098B425FD3E8
:401C0000030A8B4244D3030B8B4228D3030C8B420DD3FF22090212BA030C8B4202D31212090265D0030B8B4219D300E0090AC30B8B4201D3CB03C01A5241830B8B4201D381
:401C40008B03C01A5241430B8B4201D34B03C01A5241030B8B4201D30B03C01A5241C30A8B4201D3CB02C01A5241830A8B4201D38B02C01A5241430A8B4201D34B02C01AB0
:401C80005241030A8B4201D30B02C01A5241CDD2C3098B4201D3CB01C01A524183098B4201D38B01C01A524143098B4201D34B01C01A524103098B4201D30B01C01A524132
:401CC000C3088B4201D3CB00C01A524183088B4201D38B00C01A524143088B4201D34B00C01A5241411A00D201465241104670475DE0CA0F00D04942031000D340425340F8
:401D000000229C4603098B422DD3030A8B4212D3FC22890112BA030A8B420CD3890192118B4208D3890192118B4204D389013AD0921100E08909C3098B4201D3CB01C01A78
:401D4000524183098B4201D38B01C01A524143098B4201D34B01C01A524103098B4201D30B01C01A5241C3088B4201D3CB00C01A524183088B4201D38B00C01A5241D9D26B
:401D800043088B4201D34B00C01A5241411A00D20146634652415B10104601D34042002B00D54942704763465B1000D3404201B5002000F00BF802BD0029F8D003B5FFF7E6
:401DC00015FF0EBC4243891A1847C0467047C0464202510A4200C30F120E00207E2A0DDD9D2A0CDC802000040143952A0ADC9620821AD1400A1C58424240D0187047034A69
:401E00009818FBE7963A91400A1CF4E7FFFFFF7F70B5041E39D0C50F00D04442201C00F03FF89E23261C1B1A962B07DC082801DD083884406402640AD8B21EE0992B0ADD20
:401E40000522211C121AD1400A1C011C1B318E40711E8E411643052801DD421F96400F4C3440720704D00F221640042E00D0043462010ED4A401640AD8B26402C005640A13
:401E8000ED0704432C43201C70BD002500200024F3E7024B1C409F231B1AEBE7FFFFFFFB1C2101231B04984201D3000C10391B0A984201D3000A08391B09984201D30009E6
:401EC000043902A2105C40187047C046040302020101010100000000000000000E4B70B500251E1C0D4CE41AA410A54204D0AB00F35898470135F8E702F090F8084B0025F2
:401F00001E1C084CE41AA410A54204D0AB00F35898470135F8E770BD28400000284000002840000030400000031C8218934202D019700133FAE77047000000000D0A2A2AC7
:401F40002A2A2A2A2A2A2A2A2A2A2A2A2A2A2A2A2A2A2A2A2A2A2A2A2A2A2A2A2A2A2A2A2A2A2A2A2A2A2A2A2A2A2A2A2A2A2A2A2A2A2A2A2A2A2A2A2A2A2A2A2A2A2A2AE1
:401F80002A2A2A2A2A2A2A2A2A2A2A2A2A2A0D0A00000000594F4E4F20496E7465726E616C2054657374696E670D0A005343425F55415254205375636365737366756C0D47
:401FC0000A0000005374617274696E6720746F205472616E736D69742054656D70657261747572650D0A00000D0A000054656D70657261747572653D0000000025640000E6
:402000004300000056545F4144435F436F756E743D000000256400002020000056525F4144435F436F756E743D0000005C0C00006A0C0000780C0000560C00003E0C00009C
:40204000440C00004A0C0000500C0000140D0000260D0000380D00000E0D0000F60C0000FC0C0000020D0000080D000000300F40000400400F40000404300F4001310F4062
:4020800001330F4005430F4002600F4034013E1058045F011804B4045402A002B402D604EC02020111010000CC300000C6300000C1300000BB300000B5300000B030000024
:4020C000AA300000A53000009F30000099300000943000008E30000088300000833000007D30000078300000723000006C30000067300000613000005C30000056300000DF
:40210000513000004B30000045300000403000003A300000353000002F3000002A300000243000001E30000019300000133000000E3000000830000003300000FD2F000033
:40214000F82F0000F22F0000ED2F0000E72F0000E12F0000DC2F0000D62F0000D12F0000CB2F0000C62F0000C02F0000BB2F0000B52F0000B02F0000AA2F0000A52F00008D
:402180009F2F00009A2F0000942F00008F2F0000892F0000842F00007F2F0000792F0000742F00006E2F0000692F0000632F00005E2F0000582F0000532F00004D2F0000CA
:4021C000482F0000422F00003D2F0000382F0000322F00002D2F0000272F0000222F00001C2F0000172F0000122F00000C2F0000072F0000012F0000FC2E0000F72E0000FE
:40220000F12E0000EC2E0000E62E0000E12E0000DC2E0000D62E0000D12E0000CB2E0000C62E0000C12E0000BB2E0000B62E0000B12E0000AB2E0000A62E0000A02E000032
:402240009B2E0000962E0000902E00008B2E0000862E0000802E00007B2E0000762E0000702E00006B2E0000662E0000602E00005B2E0000562E0000502E00004B2E00004E
:40228000462E0000402E00003B2E0000362E0000302E00002B2E0000262E0000212E00001B2E0000162E0000112E00000B2E0000062E0000012E0000FC2D0000F62D000061
:4022C000F12D0000EC2D0000E62D0000E12D0000DC2D0000D72D0000D12D0000CC2D0000C72D0000C22D0000BC2D0000B72D0000B22D0000AD2D0000A72D0000A22D000076
:402300009D2D0000982D0000932D00008D2D0000882D0000832D00007E2D0000782D0000732D00006E2D0000692D0000642D00005E2D0000592D0000542D00004F2D00006F
:402340004A2D0000442D00003F2D00003A2D0000352D0000302D00002B2D0000252D0000202D00001B2D0000162D0000112D00000C2D0000062D0000012D0000FC2C000061
:40238000F72C0000F22C0000ED2C0000E82C0000E22C0000DD2C0000D82C0000D32C0000CE2C0000C92C0000C42C0000BF2C0000B92C0000B42C0000AF2C0000AA2C000055
:4023C000A52C0000A02C00009B2C0000962C0000912C00008C2C0000862C0000812C00007C2C0000772C0000722C00006D2C0000682C0000632C00005E2C0000592C00002F
:40240000542C00004F2C00004A2C0000452C00003F2C00003A2C0000352C0000302C00002B2C0000262C0000212C00001C2C0000172C0000122C00000D2C0000082C000000
:40244000032C0000FE2B0000F92B0000F42B0000EF2B0000EA2B0000E52B0000E02B0000DB2B0000D62B0000D12B0000CC2B0000C72B0000C22B0000BD2B0000B82B0000D3
:40248000B32B0000AE2B0000A92B0000A42B00009F2B00009A2B0000952B0000902B00008B2B0000862B0000812B00007C2B0000772B0000732B00006E2B0000692B000091
:4024C000642B00005F2B00005A2B0000552B0000502B00004B2B0000462B0000412B00003C2B0000372B0000322B00002D2B0000292B0000242B00001F2B00001A2B000040
:40250000152B0000102B00000B2B0000062B0000012B0000FC2A0000F82A0000F32A0000EE2A0000E92A0000E42A0000DF2A0000DA2A0000D52A0000D12A0000CC2A0000F2
:40254000C72A0000C22A0000BD2A0000B82A0000B32A0000AF2A0000AA2A0000A52A0000A02A00009B2A0000962A0000922A00008D2A0000882A0000832A00007E2A000093
:40258000792A0000752A0000702A00006B2A0000662A0000612A00005C2A0000582A0000532A00004E2A0000492A0000442A0000402A00003B2A0000362A0000312A000027
:4025C0002D2A0000282A0000232A00001E2A0000192A0000152A0000102A00000B2A0000062A0000022A0000FD290000F8290000F3290000EF290000EA290000E5290000B4
:40260000E0290000DC290000D7290000D2290000CD290000C9290000C4290000BF290000BA290000B6290000B1290000AC290000A7290000A32900009E290000992900003E
:4026400095290000902900008B29000087290000822900007D29000078290000742900006F2900006A29000066290000612900005C29000058290000532900004E290000B3
:402680004A29000045290000402900003C29000037290000322900002E2900002929000024290000202900001B29000016290000122900000D29000008290000042900001F
:4026C000FF280000FB280000F6280000F1280000ED280000E8280000E3280000DF280000DA280000D6280000D1280000CC280000C8280000C3280000BF280000BA28000091
:40270000B5280000B1280000AC280000A8280000A32800009E2800009A28000095280000912800008C28000088280000832800007E2800007A2800007528000071280000E9
:402740006C28000068280000632800005E2800005A28000055280000512800004C28000048280000432800003F2800003A28000036280000312800002D2800002828000038
:40278000232800001F2800001A28000016280000112800000D2800000828000004280000FF270000FB270000F6270000F2270000ED270000E9270000E4270000E027000089
:4027C000DB270000D7270000D2270000CE270000C9270000C5270000C0270000BC270000B8270000B3270000AF270000AA270000A6270000A12700009D27000098270000CD
:40280000942700008F2700008B27000087270000822700007E2700007927000075270000702700006C27000067270000632700005F2700005A2700005627000051270000FF
:402840004D2700004927000044270000402700003B27000037270000322700002E2700002A27000025270000212700001C27000018270000142700000F2700000B2700002A
:402880000727000002270000FE260000F9260000F5260000F1260000EC260000E8260000E4260000DF260000DB260000D6260000D2260000CE260000C9260000C52600005A
:4028C000C1260000BC260000B8260000B4260000AF260000AB260000A7260000A22600009E2600009A26000095260000912600008D26000088260000842600008026000075
:402900007B26000077260000732600006F2600006A26000066260000622600005D2600005926000055260000502600004C26000048260000442600003F2600003B26000084
:4029400037260000322600002E2600002A26000026260000212600001D2600001926000015260000102600000C2600000826000004260000FF250000FB250000F72500008E
:40298000F3250000EE250000EA250000E6250000E2250000DD250000D9250000D5250000D1250000CC250000C8250000C4250000C0250000BC250000B7250000B32500009A
:4029C000AF250000AB250000A7250000A22500009E2500009A25000096250000912500008D2500008925000085250000812500007D25000078250000742500007025000090
:402A00006C25000068250000632500005F2500005B25000057250000532500004F2500004A25000046250000422500003E2500003A25000036250000322500002D2500007D
:402A40002925000025250000212500001D2500001925000015250000102500000C250000082500000425000000250000FC240000F8240000F4240000EF240000EB24000067
:402A8000E7240000E3240000DF240000DB240000D7240000D3240000CF240000CA240000C6240000C2240000BE240000BA240000B6240000B2240000AE240000AA2400004F
:402AC000A6240000A22400009E2400009924000095240000912400008D2400008924000085240000812400007D2400007924000075240000712400006D2400006924000023
:402B000065240000612400005D2400005924000054240000502400004C2400004824000044240000402400003C2400003824000034240000302400002C24000028240000F1
:402B400024240000202400001C2400001824000014240000102400000C240000082400000424000000240000FC230000F8230000F4230000F0230000EC230000E8230000BB
:402B8000E4230000E0230000DC230000D8230000D4230000D0230000CC230000C8230000C4230000C0230000BC230000B8230000B4230000B1230000AD230000A923000082
:402BC000A5230000A12300009D2300009923000095230000912300008D2300008923000085230000812300007D2300007923000075230000712300006E2300006A23000033
:402C000066230000622300005E2300005A23000056230000522300004E2300004A23000046230000422300003F2300003B23000037230000332300002F2300002B230000DE
:402C400027230000232300001F2300001C2300001823000014230000102300000C230000082300000423000000230000FC220000F9220000F5220000F1220000ED22000088
:402C8000E9220000E5220000E1220000DE220000DA220000D6220000D2220000CE220000CA220000C6220000C3220000BF220000BB220000B7220000B3220000AF22000031
:402CC000AC220000A8220000A4220000A02200009C2200009822000095220000912200008D2200008922000085220000822200007E2200007A2200007622000072220000C5
:402D00006F2200006B22000067220000632200005F2200005C2200005822000054220000502200004C2200004922000045220000412200003D2200003A2200003622000050
:402D4000322200002E2200002A22000027220000232200001F2200001B2200001822000014220000102200000C220000092200000522000001220000FD210000FA210000D9
:402D8000F6210000F2210000EE210000EB210000E7210000E3210000DF210000DC210000D8210000D4210000D1210000CD210000C9210000C5210000C2210000BE21000065
:402DC000BA210000B7210000B3210000AF210000AB210000A8210000A4210000A02100009D2100009921000095210000922100008E2100008A2100008621000083210000DB
:402E00007F2100007B2100007821000074210000702100006D2100006921000065210000622100005E2100005A21000057210000532100004F2100004C210000482100004A
:402E400044210000412100003D2100003921000036210000322100002F2100002B2100002721000024210000202100001C2100001921000015210000112100000E210000B1
:402E80000A2100000721000003210000FF200000FC200000F8200000F4200000F1200000ED200000EA200000E6200000E2200000DF200000DB200000D8200000D42000001E
:402EC000D0200000CD200000C9200000C6200000C2200000BE200000BB200000B7200000B4200000B0200000AC200000A9200000A5200000A22000009E2000009B2000007B
:402F00009720000093200000902000008C2000008920000085200000822000007E2000007B2000007720000073200000702000006C200000692000006520000062200000CC
:402F40005E2000005B2000005720000053200000502000004C2000004920000045200000422000003E2000003B2000003720000034200000302000002D2000002920000018
:402F800026200000222000001F2000001B2000001820000014200000112000000D2000000A2000000620000003200000FF1F0000FC1F0000F81F0000F51F0000F11F00005E
:402FC000EE1F0000EA1F0000E71F0000E31F0000E01F0000DC1F0000D91F0000D51F0000D21F0000CE1F0000CB1F0000C71F0000C41F0000C01F0000BD1F0000B91F0000A9
:40300000B61F0000B31F0000AF1F0000AC1F0000A81F0000A51F0000A11F00009E1F00009A1F0000971F0000941F0000901F00008D1F0000891F0000861F0000821F0000DD
:403040007F1F00007B1F0000781F0000751F0000711F00006E1F00006A1F0000671F0000631F0000601F00005D1F0000591F0000561F0000521F00004F1F00004C1F00000D
:40308000481F0000451F0000411F00003E1F00003B1F0000371F0000341F0000301F00002D1F00002A1F0000261F0000231F00001F1F00001C1F0000191F0000151F000035
:4030C000121F00000E1F00000B1F0000081F0000041F0000011F0000FE1E0000FA1E0000F71E0000F31E0000F01E0000ED1E0000E91E0000E61E0000E31E0000DF1E000062
:40310000DC1E0000D91E0000D51E0000D21E0000CF1E0000CB1E0000C81E0000C41E0000C11E0000BE1E0000BA1E0000B71E0000B41E0000B01E0000AD1E0000AA1E000082
:40314000A61E0000A31E0000A01E00009C1E0000991E0000961E0000921E00008F1E00008C1E0000891E0000851E0000821E00007F1E00007B1E0000781E0000751E000097
:40318000711E00006E1E00006B1E0000671E0000641E0000611E00005E1E00005A1E0000571E0000541E0000501E00004D1E00004A1E0000471E0000431E0000401E0000A5
:4031C0003D1E0000391E0000361E0000331E0000301E00002C1E0000291E0000261E0000231E00001F1E00001C1E0000191E0000151E0000121E00000F1E00000C1E0000AC
:40320000081E0000051E0000021E0000FF1D0000FB1D0000F81D0000F51D0000F21D0000EE1D0000EB1D0000E81D0000E51D0000E21D0000DE1D0000DB1D0000D81D0000BA
:40324000D51D0000D11D0000CE1D0000CB1D0000C81D0000C41D0000C11D0000BE1D0000BB1D0000B81D0000B41D0000B11D0000AE1D0000AB1D0000A81D0000A41D0000B7
:40328000A11D00009E1D00009B1D0000981D0000941D0000911D00008E1D00008B1D0000881D0000841D0000811D00007E1D00007B1D0000781D0000741D0000711D0000AB
:4032C0006E1D00006B1D0000681D0000651D0000611D00005E1D00005B1D0000581D0000551D0000521D00004E1D00004B1D0000481D0000451D0000421D00003F1D000098
:403300003B1D0000381D0000351D0000321D00002F1D00002C1D0000281D0000251D0000221D00001F1D00001C1D0000191D0000161D0000121D00000F1D00000C1D000082
:40334000091D0000061D0000031D0000001D0000FD1C0000F91C0000F61C0000F31C0000F01C0000ED1C0000EA1C0000E71C0000E41C0000E11C0000DD1C0000DA1C00006E
:40338000D71C0000D41C0000D11C0000CE1C0000CB1C0000C81C0000C51C0000C11C0000BE1C0000BB1C0000B81C0000B51C0000B21C0000AF1C0000AC1C0000A91C00004E
:4033C000A61C0000A31C0000A01C00009C1C0000991C0000961C0000931C0000901C00008D1C00008A1C0000871C0000841C0000811C00007E1C00007B1C0000781C000022
:40340000751C0000711C00006E1C00006B1C0000681C0000651C0000621C00005F1C00005C1C0000591C0000561C0000531C0000501C00004D1C00004A1C0000471C0000F3
:40344000441C0000411C00003E1C00003B1C0000381C0000351C0000321C00002F1C00002C1C0000281C0000251C0000221C00001F1C00001C1C0000191C0000161C0000BB
:40348000131C0000101C00000D1C00000A1C0000071C0000041C0000011C0000FE1B0000FB1B0000F81B0000F51B0000F21B0000EF1B0000EC1B0000E91B0000E61B00008D
:4034C000E31B0000E01B0000DD1B0000DA1B0000D71B0000D41B0000D11B0000CE1B0000CB1B0000C81B0000C51B0000C31B0000C01B0000BD1B0000BA1B0000B71B00004F
:40350000B41B0000B11B0000AE1B0000AB1B0000A81B0000A51B0000A21B00009F1B00009C1B0000991B0000961B0000931B0000901B00008D1B00008A1B0000871B000003
:40354000841B0000811B00007E1B00007C1B0000791B0000761B0000731B0000701B00006D1B00006A1B0000671B0000641B0000611B00005E1B00005B1B0000581B0000B6
:40358000551B0000521B0000501B00004D1B00004A1B0000471B0000441B0000411B00003E1B00003B1B0000381B0000351B0000321B0000301B00002D1B00002A1B000062
:4035C000271B0000241B0000211B00001E1B00001B1B0000181B0000151B0000131B0000101B00000D1B00000A1B0000071B0000041B0000011B0000FE1A0000FB1A00000C
:40360000F91A0000F61A0000F31A0000F01A0000ED1A0000EA1A0000E71A0000E41A0000E21A0000DF1A0000DC1A0000D91A0000D61A0000D31A0000D01A0000CE1A0000B9
:40364000CB1A0000C81A0000C51A0000C21A0000BF1A0000BC1A0000BA1A0000B71A0000B41A0000B11A0000AE1A0000AB1A0000A91A0000A61A0000A31A0000A01A000054
:403680009D1A00009A1A0000971A0000951A0000921A00008F1A00008C1A0000891A0000871A0000841A0000811A00007E1A00007B1A0000781A0000761A0000731A0000EB
:4036C000701A00006D1A00006A1A0000681A0000651A0000621A00005F1A00005C1A0000591A0000571A0000541A0000511A00004E1A00004B1A0000491A0000461A00007C
:40370000431A0000401A00003E1A00003B1A0000381A0000351A0000321A0000301A00002D1A00002A1A0000271A0000241A0000221A00001F1A00001C1A0000191A000006
:40374000171A0000141A0000111A00000E1A00000C1A0000091A0000061A0000031A0000001A0000FE190000FB190000F8190000F5190000F3190000F0190000ED19000092
:40378000EA190000E8190000E5190000E2190000DF190000DD190000DA190000D7190000D4190000D2190000CF190000CC190000C9190000C7190000C4190000C11900001D
:4037C000BF190000BC190000B9190000B6190000B4190000B1190000AE190000AB190000A9190000A6190000A3190000A11900009E1900009B190000981900009619000097
:4038000093190000901900008E1900008B190000881900008519000083190000801900007D1900007B190000781900007519000073190000701900006D1900006B1900000C
:40384000681900006519000062190000601900005D1900005A190000581900005519000052190000501900004D1900004A190000481900004519000042190000401900007D
:403880003D1900003A190000381900003519000032190000301900002D1900002A190000281900002519000022190000201900001D1900001A1900001819000015190000E8
:4038C00012190000101900000D1900000A19000008190000051900000319000000190000FD180000FB180000F8180000F5180000F3180000F0180000ED180000EB18000057
:40390000E8180000E6180000E3180000E0180000DE180000DB180000D8180000D6180000D3180000D1180000CE180000CB180000C9180000C6180000C4180000C1180000BE
:40394000BE180000BC180000B9180000B6180000B4180000B1180000AF180000AC180000A9180000A7180000A4180000A21800009F1800009C1800009A180000971800001C
:403980009518000092180000901800008D1800008A180000881800008518000083180000801800007D1800007B180000781800007618000073180000711800006E18000071
:4039C0006B180000691800006618000064180000611800005F1800005C180000591800005718000054180000521800004F1800004D1800004A1800004818000045180000C4
:403A000042180000401800003D1800003B180000381800003618000033180000311800002E1800002C180000291800002618000024180000211800001F1800001C18000011
:403A40001A180000171800001518000012180000101800000D1800000B18000008180000061800000318000000180000FE170000FB170000F9170000F6170000F41700005E
:403A8000F1170000EF170000EC170000EA170000E7170000E5170000E2170000E0170000DD170000DB170000D8170000D6170000D3170000D1170000CE170000CC170000AE
:403AC000C9170000C7170000C4170000C2170000BF170000BD170000BA170000B8170000B5170000B3170000B0170000AE170000AB170000A9170000A7170000A4170000ED
:403B0000A21700009F1700009D1700009A170000981700009517000093170000901700008E1700008B170000891700008617000084170000811700007F1700007D17000024
:403B40007A170000781700007517000073170000701700006E1700006B170000691700006617000064170000621700005F1700005D1700005A17000058170000551700005A
:403B800053170000501700004E1700004C170000491700004717000044170000421700003F1700003D1700003B170000381700003617000033170000311700002E1700008B
:403BC0002C1700002A170000271700002517000022170000201700001E1700001B170000191700001617000014170000111700000F1700000D1700000A17000008170000B6
:403C0000051700000317000001170000FE160000FC160000F9160000F7160000F5160000F2160000F0160000ED160000EB160000E9160000E6160000E4160000E1160000EB
:403C4000DF160000DD160000DA160000D8160000D6160000D3160000D1160000CE160000CC160000CA160000C7160000C5160000C3160000C0160000BE160000BB16000010
:403C8000B9160000B7160000B4160000B2160000B0160000AD160000AB160000A9160000A6160000A4160000A11600009F1600009D1600009A16000098160000961600002E
:403CC00093160000911600008F1600008C1600008A160000881600008516000083160000811600007E1600007C1600007A1600007716000075160000731600007016000047
:403D00006E1600006C16000069160000671600006516000062160000601600005E1600005B16000059160000571600005416000052160000501600004D1600004B1600005B
:403D4000491600004616000044160000421600003F1600003D1600003B160000381600003616000034160000321600002F1600002D1600002B16000028160000261600006E
:403D800024160000211600001F1600001D1600001B160000181600001616000014160000111600000F1600000D1600000B160000081600000616000004160000011600007A
:403DC000FF150000FD150000FB150000F8150000F6150000F4150000F1150000EF150000ED150000EB150000E8150000E6150000E4150000E2150000DF150000DD15000092
:403E0000DB150000D8150000D6150000D4150000D2150000CF150000CD150000CB150000C9150000C6150000C4150000C2150000C0150000BD150000BB150000B915000096
:403E4000B7150000B4150000B2150000B0150000AE150000AB150000A9150000A7150000A5150000A2150000A01500009E1500009C15000099150000971500009515000096
:403E800093150000911500008E1500008C1500008A150000881500008515000083150000811500007F1500007C1500007A1500007815000076150000741500007115000091
:403EC0006F1500006D1500006B15000069150000661500006415000062150000601500005D1500005B15000059150000571500005515000052150000501500004E15000089
:403F00004C1500004A150000471500004515000043150000411500003F1500003C1500003A150000381500003615000034150000321500002F1500002D1500002B1500007B
:403F400029150000271500002415000022150000201500001E1500001C1500001A150000171500001515000013150000111500000F1500000D1500000A1500000815000069
:403F800006150000041500000215000000150000FD140000FB140000F9140000F7140000F5140000F3140000F0140000EE140000EC140000EA140000E8140000E61400005F
:403FC000E3140000E1140000DF140000DD140000DB140000D9140000D7140000D4140000D2140000D0140000CE140000030405060708090A0B0C0E0F101112131415161792
:4040000018191B1C1D1E1F2021222325262728292A2B2E2F3031323334350000F8B5C046F8BC08BC9E467047E1020000410A0000F8B5C046F8BC08BC9E467047B90200001F
:4040400050400000C8000020180000004800000000000000FFFF000000366E01C05D0000180000000000E02E00000000000000000000000000000000000000000000000082
:404080000000000000000000000000000000000000000000000000000000000000000000000000000000000000000000000000000000000000000000000000000000000000
:4040C00000000000000000000000000000000000000000000000000000000000000000000000000000000000000000000000000000000000000000000000000000000000C0
:40410000000000000000000000000000000000000000000000000000000000000000000000000000000000000000000000000000000000000000000000000000000000007F
:40414000000000000000000000000000000000000000000000000000000000000000000000000000000000000000000000000000000000000000000000000000000000003F
:020000040001F9
:0200000490303A
:02000000D91E07
:0200000490402A
:4000000000000000000000000000000000000000000000000000000000000000000000000000000000000000000000000000000000000000000000000000000000000000C0
:400040000000000000000000000000000000000000000000000000000000000000000000000000000000000000000000000000000000000000000000000000000000000080
:0200000490501A
:0C00000000020E34119E00010E43EABC09
:0200000490600A
:0100000001FE
:00000001FF